:0400000098EF3FF046
:107F300000019BEF3FF0000E0F013B6F000E946EAF
:107F4000F80E956E3C0EBD6E640EBB6E010EBA6EE1
:107F5000838083928394030E026E080E016E770E67
:107F6000E82EFED7012EFCD7022EFAD700F083A60A
:107F700002D0190E07D083A802D0320E03D083AAF4
:107F800002D04B0EBE6E839083828394030E026EEA
:107F9000080E016E770EE82EFED7012EFCD7022EBA
:107FA000FAD700F083A602D0280E07D083A802D00B
:107FB000320E03D083AA02D03C0EBE6E8390839211
:107FC0008384030E026E080E016E770EE82EFED734
:107FD000012EFCD7022EFAD700F083A602D0460E5F
:107FE00007D083A802D0500E03D083AA02D05A0E25
:107FF000BE6E000EBC6E9E92BA849EB2A9D7FDD70B
:020000040020DA
:08000000FFFFFFFFFFFFFFFF00
:020000040030CA
:0E000000FF031F3CFFB580FF0FC00FE00F4055
:00000001FF
